Component: ARM Compiler 5.06 update 7 (build 960) Tool: armlink [4d3601]

==============================================================================

Section Cross References

    main.o(i.main) refers to bootloader.o(i.app_bootloader_init) for app_bootloader_init
    main.o(i.main) refers to flash.o(i.Flash_ReadProtection_Enable) for Flash_ReadProtection_Enable
    main.o(i.main) refers to gd32f30x_rcu.o(i.rcu_ahb_clock_config) for rcu_ahb_clock_config
    main.o(i.main) refers to gd32f30x_rcu.o(i.rcu_periph_clock_enable) for rcu_periph_clock_enable
    main.o(i.main) refers to gd32f30x_gpio.o(i.gpio_pin_remap_config) for gpio_pin_remap_config
    main.o(i.main) refers to delay.o(i.delay_init) for delay_init
    main.o(i.main) refers to bootloader.o(i.do_ota_file) for do_ota_file
    main.o(i.main) refers to bootloader.o(i.normal_boot_to_app) for normal_boot_to_app
    gd32f30x_it.o(i.SysTick_Handler) refers to systick.o(i.delay_decrement) for delay_decrement
    systick.o(i.delay_1ms) refers to systick.o(.data) for .data
    systick.o(i.delay_decrement) refers to systick.o(.data) for .data
    systick.o(i.systick_config) refers to systick.o(i.NVIC_SetPriority) for NVIC_SetPriority
    systick.o(i.systick_config) refers to system_gd32f30x.o(.data) for SystemCoreClock
    bootloader.o(i.app_bootloader_init) refers to systick.o(i.systick_config) for systick_config
    bootloader.o(i.app_bootloader_init) refers to strrchr.o(.text) for strrchr
    bootloader.o(i.app_bootloader_init) refers to segger_rtt_printf.o(i.SEGGER_RTT_printf) for SEGGER_RTT_printf
    bootloader.o(i.app_bootloader_init) refers to gd32f30x_misc.o(i.nvic_irq_disable) for nvic_irq_disable
    bootloader.o(i.app_bootloader_init) refers to gd32f30x_misc.o(i.nvic_vector_table_set) for nvic_vector_table_set
==============================================================================

Removing Unused input sections from the image.

    Removing main.o(.rev16_text), (4 bytes).
    Removing main.o(.revsh_text), (4 bytes).
    Removing gd32f30x_it.o(.rev16_text), (4 bytes).
    Removing gd32f30x_it.o(.revsh_text), (4 bytes).
    Removing systick.o(.rev16_text), (4 bytes).
    Removing systick.o(.revsh_text), (4 bytes).
    Removing bootloader.o(.rev16_text), (4 bytes).
    Removing bootloader.o(.revsh_text), (4 bytes).
    Removing system_gd32f30x.o(.rev16_text), (4 bytes).
    Removing system_gd32f30x.o(.revsh_text), (4 bytes).
    Removing system_gd32f30x.o(i.SystemCoreClockUpdate), (172 bytes).
    Removing gd32f30x_adc.o(.rev16_text), (4 bytes).
    Removing gd32f30x_adc.o(.revsh_text), (4 bytes).
    Removing gd32f30x_adc.o(i.adc_calibration_enable), (30 bytes).
    Removing gd32f30x_adc.o(i.adc_channel_length_config), (54 bytes).
    Removing gd32f30x_adc.o(i.adc_data_alignment_config), (20 bytes).
    Removing gd32f30x_adc.o(i.adc_deinit), (60 bytes).
    Removing gd32f30x_adc.o(i.adc_disable), (10 bytes).
==============================================================================

Image Symbol Table

    Local Symbols

    Symbol Name                              Value     Ov Type        Size  Object(Section)

    ../clib/microlib/init/entry.s            0x00000000   Number         0  entry10b.o ABSOLUTE
    ../clib/microlib/init/entry.s            0x00000000   Number         0  entry7a.o ABSOLUTE
    ../clib/microlib/init/entry.s            0x00000000   Number         0  entry8b.o ABSOLUTE
    ../clib/microlib/init/entry.s            0x00000000   Number         0  entry9a.o ABSOLUTE
    ../clib/microlib/init/entry.s            0x00000000   Number         0  entry12b.o ABSOLUTE
    ../clib/microlib/init/entry.s            0x00000000   Number         0  entry7b.o ABSOLUTE
    ../clib/microlib/init/entry.s            0x00000000   Number         0  entry8a.o ABSOLUTE
    ../clib/microlib/init/entry.s            0x00000000   Number         0  entry12a.o ABSOLUTE
    ../clib/microlib/init/entry.s            0x00000000   Number         0  entry.o ABSOLUTE
    ../clib/microlib/init/entry.s            0x00000000   Number         0  entry10a.o ABSOLUTE
    ../clib/microlib/init/entry.s            0x00000000   Number         0  entry5.o ABSOLUTE
    ../clib/microlib/init/entry.s            0x00000000   Number         0  entry11b.o ABSOLUTE
    ../clib/microlib/init/entry.s            0x00000000   Number         0  entry9b.o ABSOLUTE
    ../clib/microlib/init/entry.s            0x00000000   Number         0  entry11a.o ABSOLUTE
    ../clib/microlib/init/entry.s            0x00000000   Number         0  entry2.o ABSOLUTE
    ../clib/microlib/longlong.c              0x00000000   Number         0  llushr.o ABSOLUTE
    ../clib/microlib/longlong.c              0x00000000   Number         0  llshl.o ABSOLUTE
    ../clib/microlib/malloc/calloc.c         0x00000000   Number         0  calloc.o ABSOLUTE
    ../clib/microlib/malloc/malloc.c         0x00000000   Number         0  malloca.o ABSOLUTE
    ../clib/microlib/malloc/malloc.c         0x00000000   Number         0  mallocr.o ABSOLUTE
    ../clib/microlib/malloc/malloc.c         0x00000000   Number         0  malloc.o ABSOLUTE
    ../clib/microlib/malloc/malloc.c         0x00000000   Number         0  mallocra.o ABSOLUTE
    ../clib/microlib/malloc/mvars.c          0x00000000   Number         0  mvars.o ABSOLUTE
    ../clib/microlib/string/memcmp.c         0x00000000   Number         0  memcmp.o ABSOLUTE
    ../clib/microlib/string/memcpy.c         0x00000000   Number         0  memcpyb.o ABSOLUTE
    ../clib/microlib/string/memcpy.c         0x00000000   Number         0  memcpya.o ABSOLUTE
    ../clib/microlib/string/memset.c         0x00000000   Number         0  memseta.o ABSOLUTE
    ../clib/microlib/string/memset.c         0x00000000   Number         0  memset.o ABSOLUTE
    ../clib/microlib/string/strcmp.c         0x00000000   Number         0  strcmp.o ABSOLUTE
    ../clib/microlib/string/strlen.c         0x00000000   Number         0  strlen.o ABSOLUTE
    ../clib/microlib/string/strrchr.c        0x00000000   Number         0  strrchr.o ABSOLUTE
    ../clib/microlib/stubs.s                 0x00000000   Number         0  iusefp.o ABSOLUTE
    ../fplib/microlib/fpepilogue.c           0x00000000   Number         0  depilogue.o ABSOLUTE
    ../fplib/microlib/fpfix.c                0x00000000   Number         0  dfixi.o ABSOLUTE
    ../fplib/microlib/fpflt.c                0x00000000   Number         0  dflti.o ABSOLUTE
    ../fplib/microlib/fpmul.c                0x00000000   Number         0  dmul.o ABSOLUTE
    ..\..\..\Library\Firmware\CMSIS\GD\GD32F30x\Source\ARM\startup_gd32f30x_hd.s 0x00000000   Number         0  startup_gd32f30x_hd.o ABSOLUTE
    ..\..\..\Library\Firmware\CMSIS\GD\GD32F30x\Source\system_gd32f30x.c 0x00000000   Number         0  system_gd32f30x.o ABSOLUTE
    ..\..\..\Library\Firmware\GD32F30x_standard_peripheral\Source\gd32f30x_adc.c 0x00000000   Number         0  gd32f30x_adc.o ABSOLUTE
    ..\..\..\Library\Firmware\GD32F30x_standard_peripheral\Source\gd32f30x_bkp.c 0x00000000   Number         0  gd32f30x_bkp.o ABSOLUTE
    ..\..\..\Library\Firmware\GD32F30x_standard_peripheral\Source\gd32f30x_can.c 0x00000000   Number         0  gd32f30x_can.o ABSOLUTE
    ..\..\..\Library\Firmware\GD32F30x_standard_peripheral\Source\gd32f30x_crc.c 0x00000000   Number         0  gd32f30x_crc.o ABSOLUTE
    ..\..\..\Library\Firmware\GD32F30x_standard_peripheral\Source\gd32f30x_ctc.c 0x00000000   Number         0  gd32f30x_ctc.o ABSOLUTE
    ..\..\..\Library\Firmware\GD32F30x_standard_peripheral\Source\gd32f30x_dac.c 0x00000000   Number         0  gd32f30x_dac.o ABSOLUTE
    ..\..\..\Library\Firmware\GD32F30x_standard_peripheral\Source\gd32f30x_dbg.c 0x00000000   Number         0  gd32f30x_dbg.o ABSOLUTE
    ..\..\..\Library\Firmware\GD32F30x_standard_peripheral\Source\gd32f30x_dma.c 0x00000000   Number         0  gd32f30x_dma.o ABSOLUTE
    ..\..\..\Library\Firmware\GD32F30x_standard_peripheral\Source\gd32f30x_enet.c 0x00000000   Number         0  gd32f30x_enet.o ABSOLUTE
    ..\..\..\Library\Firmware\GD32F30x_standard_peripheral\Source\gd32f30x_exmc.c 0x00000000   Number         0  gd32f30x_exmc.o ABSOLUTE
    ..\..\..\Library\Firmware\GD32F30x_standard_peripheral\Source\gd32f30x_exti.c 0x00000000   Number         0  gd32f30x_exti.o ABSOLUTE
    ..\..\..\Library\Firmware\GD32F30x_standard_peripheral\Source\gd32f30x_fmc.c 0x00000000   Number         0  gd32f30x_fmc.o ABSOLUTE
    ..\..\..\Library\Firmware\GD32F30x_standard_peripheral\Source\gd32f30x_fwdgt.c 0x00000000   Number         0  gd32f30x_fwdgt.o ABSOLUTE
    ..\..\..\Library\Firmware\GD32F30x_standard_peripheral\Source\gd32f30x_gpio.c 0x00000000   Number         0  gd32f30x_gpio.o ABSOLUTE
    ..\..\..\Library\Firmware\GD32F30x_standard_peripheral\Source\gd32f30x_i2c.c 0x00000000   Number         0  gd32f30x_i2c.o ABSOLUTE
    ..\..\..\Library\Firmware\GD32F30x_standard_peripheral\Source\gd32f30x_misc.c 0x00000000   Number         0  gd32f30x_misc.o ABSOLUTE
    ..\..\..\Library\Firmware\GD32F30x_standard_peripheral\Source\gd32f30x_pmu.c 0x00000000   Number         0  gd32f30x_pmu.o ABSOLUTE
    ..\..\..\Library\Firmware\GD32F30x_standard_peripheral\Source\gd32f30x_rcu.c 0x00000000   Number         0  gd32f30x_rcu.o ABSOLUTE
    ..\..\..\Library\Firmware\GD32F30x_standard_peripheral\Source\gd32f30x_rtc.c 0x00000000   Number         0  gd32f30x_rtc.o ABSOLUTE
    ..\..\..\Library\Firmware\GD32F30x_standard_peripheral\Source\gd32f30x_sdio.c 0x00000000   Number         0  gd32f30x_sdio.o ABSOLUTE
    ..\..\..\Library\Firmware\GD32F30x_standard_peripheral\Source\gd32f30x_spi.c 0x00000000   Number         0  gd32f30x_spi.o ABSOLUTE
    ..\..\..\Library\Firmware\GD32F30x_standard_peripheral\Source\gd32f30x_timer.c 0x00000000   Number         0  gd32f30x_timer.o ABSOLUTE
    ..\..\..\Library\Firmware\GD32F30x_standard_peripheral\Source\gd32f30x_usart.c 0x00000000   Number         0  gd32f30x_usart.o ABSOLUTE
    ..\..\..\Library\Firmware\GD32F30x_standard_peripheral\Source\gd32f30x_wwdgt.c 0x00000000   Number         0  gd32f30x_wwdgt.o ABSOLUTE
    ..\RTT\RTT\SEGGER_RTT.c                  0x00000000   Number         0  segger_rtt.o ABSOLUTE
    ..\RTT\RTT\SEGGER_RTT_printf.c           0x00000000   Number         0  segger_rtt_printf.o ABSOLUTE
    ..\\..\\..\\Library\\Firmware\\CMSIS\\GD\\GD32F30x\\Source\\system_gd32f30x.c 0x00000000   Number         0  system_gd32f30x.o ABSOLUTE
    ..\\..\\..\\Library\\Firmware\\GD32F30x_standard_peripheral\\Source\\gd32f30x_adc.c 0x00000000   Number         0  gd32f30x_adc.o ABSOLUTE
    ..\\..\\..\\Library\\Firmware\\GD32F30x_standard_peripheral\\Source\\gd32f30x_bkp.c 0x00000000   Number         0  gd32f30x_bkp.o ABSOLUTE
    ..\\..\\..\\Library\\Firmware\\GD32F30x_standard_peripheral\\Source\\gd32f30x_can.c 0x00000000   Number         0  gd32f30x_can.o ABSOLUTE
    ..\\..\\..\\Library\\Firmware\\GD32F30x_standard_peripheral\\Source\\gd32f30x_crc.c 0x00000000   Number         0  gd32f30x_crc.o ABSOLUTE
    ..\\..\\..\\Library\\Firmware\\GD32F30x_standard_peripheral\\Source\\gd32f30x_ctc.c 0x00000000   Number         0  gd32f30x_ctc.o ABSOLUTE
    ..\\..\\..\\Library\\Firmware\\GD32F30x_standard_peripheral\\Source\\gd32f30x_dac.c 0x00000000   Number         0  gd32f30x_dac.o ABSOLUTE
    ..\\..\\..\\Library\\Firmware\\GD32F30x_standard_peripheral\\Source\\gd32f30x_dbg.c 0x00000000   Number         0  gd32f30x_dbg.o ABSOLUTE
    ..\\..\\..\\Library\\Firmware\\GD32F30x_standard_peripheral\\Source\\gd32f30x_dma.c 0x00000000   Number         0  gd32f30x_dma.o ABSOLUTE
    ..\\..\\..\\Library\\Firmware\\GD32F30x_standard_peripheral\\Source\\gd32f30x_enet.c 0x00000000   Number         0  gd32f30x_enet.o ABSOLUTE
    ..\\..\\..\\Library\\Firmware\\GD32F30x_standard_peripheral\\Source\\gd32f30x_exmc.c 0x00000000   Number         0  gd32f30x_exmc.o ABSOLUTE
    ..\\..\\..\\Library\\Firmware\\GD32F30x_standard_peripheral\\Source\\gd32f30x_exti.c 0x00000000   Number         0  gd32f30x_exti.o ABSOLUTE
    ..\\..\\..\\Library\\Firmware\\GD32F30x_standard_peripheral\\Source\\gd32f30x_fmc.c 0x00000000   Number         0  gd32f30x_fmc.o ABSOLUTE
    ..\\..\\..\\Library\\Firmware\\GD32F30x_standard_peripheral\\Source\\gd32f30x_fwdgt.c 0x00000000   Number         0  gd32f30x_fwdgt.o ABSOLUTE
    ..\\..\\..\\Library\\Firmware\\GD32F30x_standard_peripheral\\Source\\gd32f30x_gpio.c 0x00000000   Number         0  gd32f30x_gpio.o ABSOLUTE
    ..\\..\\..\\Library\\Firmware\\GD32F30x_standard_peripheral\\Source\\gd32f30x_i2c.c 0x00000000   Number         0  gd32f30x_i2c.o ABSOLUTE
    ..\\..\\..\\Library\\Firmware\\GD32F30x_standard_peripheral\\Source\\gd32f30x_misc.c 0x00000000   Number         0  gd32f30x_misc.o ABSOLUTE
    ..\\..\\..\\Library\\Firmware\\GD32F30x_standard_peripheral\\Source\\gd32f30x_pmu.c 0x00000000   Number         0  gd32f30x_pmu.o ABSOLUTE
    ..\\..\\..\\Library\\Firmware\\GD32F30x_standard_peripheral\\Source\\gd32f30x_rcu.c 0x00000000   Number         0  gd32f30x_rcu.o ABSOLUTE
    ..\\..\\..\\Library\\Firmware\\GD32F30x_standard_peripheral\\Source\\gd32f30x_rtc.c 0x00000000   Number         0  gd32f30x_rtc.o ABSOLUTE
    ..\\..\\..\\Library\\Firmware\\GD32F30x_standard_peripheral\\Source\\gd32f30x_sdio.c 0x00000000   Number         0  gd32f30x_sdio.o ABSOLUTE
    ..\\..\\..\\Library\\Firmware\\GD32F30x_standard_peripheral\\Source\\gd32f30x_spi.c 0x00000000   Number         0  gd32f30x_spi.o ABSOLUTE
    ..\\..\\..\\Library\\Firmware\\GD32F30x_standard_peripheral\\Source\\gd32f30x_timer.c 0x00000000   Number         0  gd32f30x_timer.o ABSOLUTE
    ..\\..\\..\\Library\\Firmware\\GD32F30x_standard_peripheral\\Source\\gd32f30x_usart.c 0x00000000   Number         0  gd32f30x_usart.o ABSOLUTE
    ..\\..\\..\\Library\\Firmware\\GD32F30x_standard_peripheral\\Source\\gd32f30x_wwdgt.c 0x00000000   Number         0  gd32f30x_wwdgt.o ABSOLUTE
    ..\\bootloader.c                         0x00000000   Number         0  bootloader.o ABSOLUTE
    ..\\bsp\\delay\\delay.c                  0x00000000   Number         0  delay.o ABSOLUTE
    ..\\bsp\\flash\\flash.c                  0x00000000   Number         0  flash.o ABSOLUTE
    ..\\bsp\\key\\key.c                      0x00000000   Number         0  key.o ABSOLUTE
    ..\\bsp\\led\\led.c                      0x00000000   Number         0  led.o ABSOLUTE
    ..\\bsp\\uart\\uart.c                    0x00000000   Number         0  uart.o ABSOLUTE
    ..\\gd32f30x_it.c                        0x00000000   Number         0  gd32f30x_it.o ABSOLUTE
    ..\\main.c                               0x00000000   Number         0  main.o ABSOLUTE
    ..\\source\\common\\slip.c               0x00000000   Number         0  slip.o ABSOLUTE
    ..\\systick.c                            0x00000000   Number         0  systick.o ABSOLUTE
    ..\bootloader.c                          0x00000000   Number         0  bootloader.o ABSOLUTE
    ..\bsp\delay\delay.c                     0x00000000   Number         0  delay.o ABSOLUTE
    ..\bsp\flash\UID_Encryption.c            0x00000000   Number         0  uid_encryption.o ABSOLUTE
    ..\bsp\flash\flash.c                     0x00000000   Number         0  flash.o ABSOLUTE
    ..\bsp\key\key.c                         0x00000000   Number         0  key.o ABSOLUTE
    ..\bsp\led\led.c                         0x00000000   Number         0  led.o ABSOLUTE
    ..\bsp\uart\uart.c                       0x00000000   Number         0  uart.o ABSOLUTE
    ..\gd32f30x_it.c                         0x00000000   Number         0  gd32f30x_it.o ABSOLUTE
    ..\main.c                                0x00000000   Number         0  main.o ABSOLUTE
    ..\mbedtls\library\aes.c                 0x00000000   Number         0  aes.o ABSOLUTE
    ..\mbedtls\library\cipher.c              0x00000000   Number         0  cipher.o ABSOLUTE
    ..\mbedtls\library\cipher_wrap.c         0x00000000   Number         0  cipher_wrap.o ABSOLUTE
    ..\mbedtls\library\platform.c            0x00000000   Number         0  platform.o ABSOLUTE
    ..\mbedtls\library\platform_util.c       0x00000000   Number         0  platform_util.o ABSOLUTE
    ..\mbedtls\library\sha256.c              0x00000000   Number         0  sha256.o ABSOLUTE
    ..\mbedtls\library\version.c             0x00000000   Number         0  version.o ABSOLUTE
    ..\ota\decrypt.c                         0x00000000   Number         0  decrypt.o ABSOLUTE
    ..\proto\message.pb.c                    0x00000000   Number         0  message.pb.o ABSOLUTE
    ..\proto\ota.pb.c                        0x00000000   Number         0  ota.pb.o ABSOLUTE
    ..\proto\pb_common.c                     0x00000000   Number         0  pb_common.o ABSOLUTE
    ..\proto\pb_decode.c                     0x00000000   Number         0  pb_decode.o ABSOLUTE
    ..\proto\pb_encode.c                     0x00000000   Number         0  pb_encode.o ABSOLUTE
    ..\source\common\ring_buffer.c           0x00000000   Number         0  ring_buffer.o ABSOLUTE
    ..\source\common\slip.c                  0x00000000   Number         0  slip.o ABSOLUTE
    ..\systick.c                             0x00000000   Number         0  systick.o ABSOLUTE
    dc.s                                     0x00000000   Number         0  dc.o ABSOLUTE
    handlers.s                               0x00000000   Number         0  handlers.o ABSOLUTE
    init.s                                   0x00000000   Number         0  init.o ABSOLUTE
    RESET                                    0x08000000   Section      304  startup_gd32f30x_hd.o(RESET)
    .ARM.Collect$$$$00000000                 0x08000130   Section        0  entry.o(.ARM.Collect$$$$00000000)
    .ARM.Collect$$$$00000001                 0x08000130   Section        4  entry2.o(.ARM.Collect$$$$00000001)
    .ARM.Collect$$$$00000004                 0x08000134   Section        4  entry5.o(.ARM.Collect$$$$00000004)
    .ARM.Collect$$$$00000008                 0x08000138   Section        0  entry7b.o(.ARM.Collect$$$$00000008)
    .ARM.Collect$$$$0000000A                 0x08000138   Section        0  entry8b.o(.ARM.Collect$$$$0000000A)
    .ARM.Collect$$$$0000000B                 0x08000138   Section        8  entry9a.o(.ARM.Collect$$$$0000000B)
    .ARM.Collect$$$$0000000E                 0x08000140   Section        4  entry12b.o(.ARM.Collect$$$$0000000E)
    .ARM.Collect$$$$0000000F                 0x08000144   Section        0  entry10a.o(.ARM.Collect$$$$0000000F)
    .ARM.Collect$$$$00000011                 0x08000144   Section        0  entry11a.o(.ARM.Collect$$$$00000011)
    .ARM.Collect$$$$00002712                 0x08000144   Section        4  entry2.o(.ARM.Collect$$$$00002712)
    __lit__00000000                          0x08000144   Data           4  entry2.o(.ARM.Collect$$$$00002712)
    .text                                    0x08000148   Section       36  startup_gd32f30x_hd.o(.text)
    $v0                                      0x08000148   Number         0  startup_gd32f30x_hd.o(.text)
    .text                                    0x0800016c   Section        0  llshl.o(.text)
    .text                                    0x0800018a   Section        0  memcpya.o(.text)
    .text                                    0x080001ae   Section        0  memseta.o(.text)
    .text                                    0x080001d2   Section        0  memcmp.o(.text)
    .text                                    0x080001ec   Section        0  strrchr.o(.text)
    .text                                    0x08000202   Section        0  dmul.o(.text)
    .text                                    0x080002e6   Section        0  dflti.o(.text)
    .text                                    0x08000308   Section        0  dfixi.o(.text)
    .text                                    0x08000346   Section        0  llushr.o(.text)
    .text                                    0x08000366   Section        0  iusefp.o(.text)
    .text                                    0x08000366   Section        0  depilogue.o(.text)
    .text                                    0x08000420   Section       36  init.o(.text)
    i.BusFault_Handler                       0x08000444   Section        0  gd32f30x_it.o(i.BusFault_Handler)
    i.DebugMon_Handler                       0x08000446   Section        0  gd32f30x_it.o(i.DebugMon_Handler)
    i.Flash_ReadProtection_Enable            0x08000448   Section        0  flash.o(i.Flash_ReadProtection_Enable)
    i.HardFault_Handler                      0x08000472   Section        0  gd32f30x_it.o(i.HardFault_Handler)
    i.MemManage_Handler                      0x08000474   Section        0  gd32f30x_it.o(i.MemManage_Handler)
    i.NMI_Handler                            0x08000476   Section        0  gd32f30x_it.o(i.NMI_Handler)
    i.NVIC_SetPriority                       0x08000478   Section        0  systick.o(i.NVIC_SetPriority)
    NVIC_SetPriority                         0x08000479   Thumb Code    32  systick.o(i.NVIC_SetPriority)
    i.NVIC_SystemReset                       0x08000498   Section        0  flash.o(i.NVIC_SystemReset)
    NVIC_SystemReset                         0x08000499   Thumb Code    24  flash.o(i.NVIC_SystemReset)
    i.PendSV_Handler                         0x080004b8   Section        0  gd32f30x_it.o(i.PendSV_Handler)
    i.SEGGER_RTT_Write                       0x080004bc   Section        0  segger_rtt.o(i.SEGGER_RTT_Write)
    i.SEGGER_RTT_WriteNoLock                 0x080004f4   Section        0  segger_rtt.o(i.SEGGER_RTT_WriteNoLock)
    i.SEGGER_RTT_printf                      0x08000550   Section        0  segger_rtt_printf.o(i.SEGGER_RTT_printf)
    i.SEGGER_RTT_vprintf                     0x08000566   Section        0  segger_rtt_printf.o(i.SEGGER_RTT_vprintf)
    i.SVC_Handler                            0x08000712   Section        0  gd32f30x_it.o(i.SVC_Handler)
    i.SysTick_Handler                        0x08000714   Section        0  gd32f30x_it.o(i.SysTick_Handler)
    i.SystemInit                             0x08000718   Section        0  system_gd32f30x.o(i.SystemInit)
    i.TIMER6_IRQHandler                      0x08000774   Section        0  delay.o(i.TIMER6_IRQHandler)
    i.UsageFault_Handler                     0x08000790   Section        0  gd32f30x_it.o(i.UsageFault_Handler)
    i._DoInit                                0x08000794   Section        0  segger_rtt.o(i._DoInit)
    _DoInit                                  0x08000795   Thumb Code    80  segger_rtt.o(i._DoInit)
    i._GetAvailWriteSpace                    0x080007f8   Section        0  segger_rtt.o(i._GetAvailWriteSpace)
    _GetAvailWriteSpace                      0x080007f9   Thumb Code    22  segger_rtt.o(i._GetAvailWriteSpace)
    i._PrintFloat                            0x0800080e   Section        0  segger_rtt_printf.o(i._PrintFloat)
    _PrintFloat                              0x0800080f   Thumb Code   138  segger_rtt_printf.o(i._PrintFloat)
    i._PrintInt                              0x08000898   Section        0  segger_rtt_printf.o(i._PrintInt)
    _PrintInt                                0x08000899   Thumb Code   196  segger_rtt_printf.o(i._PrintInt)
    i._PrintUnsigned                         0x0800095c   Section        0  segger_rtt_printf.o(i._PrintUnsigned)
    _PrintUnsigned                           0x0800095d   Thumb Code   200  segger_rtt_printf.o(i._PrintUnsigned)
    i._StoreChar                             0x08000a28   Section        0  segger_rtt_printf.o(i._StoreChar)
    _StoreChar                               0x08000a29   Thumb Code    62  segger_rtt_printf.o(i._StoreChar)
    i._WriteBlocking                         0x08000a66   Section        0  segger_rtt.o(i._WriteBlocking)
    _WriteBlocking                           0x08000a67   Thumb Code    90  segger_rtt.o(i._WriteBlocking)
    i._WriteNoCheck                          0x08000ac0   Section        0  segger_rtt.o(i._WriteNoCheck)
    _WriteNoCheck                            0x08000ac1   Thumb Code    66  segger_rtt.o(i._WriteNoCheck)
    i.__scatterload_copy                     0x08000b02   Section       14  handlers.o(i.__scatterload_copy)
    i.__scatterload_null                     0x08000b10   Section        2  handlers.o(i.__scatterload_null)
    i.__scatterload_zeroinit                 0x08000b12   Section       14  handlers.o(i.__scatterload_zeroinit)
    i.app_bootloader_init                    0x08000b20   Section        0  bootloader.o(i.app_bootloader_init)
    i.delay_1ms                              0x08000bc0   Section        0  systick.o(i.delay_1ms)
    i.delay_decrement                        0x08000bd0   Section        0  systick.o(i.delay_decrement)
    i.delay_init                             0x08000be4   Section        0  delay.o(i.delay_init)
    i.delay_timer_init                       0x08000be8   Section        0  delay.o(i.delay_timer_init)
    i.do_hash_file                           0x08000c34   Section        0  decrypt.o(i.do_hash_file)
    i.do_ota_file                            0x08000d74   Section        0  bootloader.o(i.do_ota_file)
    i.erase_flash                            0x08000f94   Section        0  flash.o(i.erase_flash)
    i.fmc_bank0_ready_wait                   0x08001024   Section        0  gd32f30x_fmc.o(i.fmc_bank0_ready_wait)
    i.fmc_bank0_state_get                    0x0800103c   Section        0  gd32f30x_fmc.o(i.fmc_bank0_state_get)
    i.fmc_bank1_ready_wait                   0x08001064   Section        0  gd32f30x_fmc.o(i.fmc_bank1_ready_wait)
    i.fmc_bank1_state_get                    0x0800107c   Section        0  gd32f30x_fmc.o(i.fmc_bank1_state_get)
    i.fmc_flag_clear                         0x080010a4   Section        0  gd32f30x_fmc.o(i.fmc_flag_clear)
    i.fmc_lock                               0x080010c0   Section        0  gd32f30x_fmc.o(i.fmc_lock)
    i.fmc_page_erase                         0x080010e8   Section        0  gd32f30x_fmc.o(i.fmc_page_erase)
    i.fmc_unlock                             0x08001170   Section        0  gd32f30x_fmc.o(i.fmc_unlock)
    i.fmc_word_program                       0x080011a8   Section        0  gd32f30x_fmc.o(i.fmc_word_program)
    i.gpio_pin_remap_config                  0x0800121c   Section        0  gd32f30x_gpio.o(i.gpio_pin_remap_config)
    i.main                                   0x08001274   Section        0  main.o(i.main)
    i.mbedtls_internal_sha256_process        0x080012ac   Section        0  sha256.o(i.mbedtls_internal_sha256_process)
    i.mbedtls_platform_zeroize               0x08001ac4   Section        0  platform_util.o(i.mbedtls_platform_zeroize)
    i.mbedtls_sha256_finish                  0x08001ad4   Section        0  sha256.o(i.mbedtls_sha256_finish)
    i.mbedtls_sha256_finish_ret              0x08001ad8   Section        0  sha256.o(i.mbedtls_sha256_finish_ret)
    i.mbedtls_sha256_free                    0x08001c1e   Section        0  sha256.o(i.mbedtls_sha256_free)
    i.mbedtls_sha256_init                    0x08001c2a   Section        0  sha256.o(i.mbedtls_sha256_init)
    i.mbedtls_sha256_starts                  0x08001c30   Section        0  sha256.o(i.mbedtls_sha256_starts)
    i.mbedtls_sha256_starts_ret              0x08001c34   Section        0  sha256.o(i.mbedtls_sha256_starts_ret)
    i.mbedtls_sha256_update                  0x08001cc4   Section        0  sha256.o(i.mbedtls_sha256_update)
    i.mbedtls_sha256_update_ret              0x08001cc8   Section        0  sha256.o(i.mbedtls_sha256_update_ret)
    i.normal_boot_to_app                     0x08001d40   Section        0  bootloader.o(i.normal_boot_to_app)
    i.nvic_irq_disable                       0x08001d74   Section        0  gd32f30x_misc.o(i.nvic_irq_disable)
    i.nvic_irq_enable                        0x08001d8c   Section        0  gd32f30x_misc.o(i.nvic_irq_enable)
    i.nvic_priority_group_set                0x08001e20   Section        0  gd32f30x_misc.o(i.nvic_priority_group_set)
    i.nvic_vector_table_set                  0x08001e34   Section        0  gd32f30x_misc.o(i.nvic_vector_table_set)
    i.ob_erase                               0x08001e48   Section        0  gd32f30x_fmc.o(i.ob_erase)
    i.ob_lock                                0x08001eb4   Section        0  gd32f30x_fmc.o(i.ob_lock)
    i.ob_security_protection_config          0x08001ec4   Section        0  gd32f30x_fmc.o(i.ob_security_protection_config)
    i.ob_spc_get                             0x08001f30   Section        0  gd32f30x_fmc.o(i.ob_spc_get)
    i.ob_unlock                              0x08001f44   Section        0  gd32f30x_fmc.o(i.ob_unlock)
    i.rcu_ahb_clock_config                   0x08001f64   Section        0  gd32f30x_rcu.o(i.rcu_ahb_clock_config)
    i.rcu_periph_clock_enable                0x08001f78   Section        0  gd32f30x_rcu.o(i.rcu_periph_clock_enable)
    i.system_clock_120m_hxtal                0x08001f94   Section        0  system_gd32f30x.o(i.system_clock_120m_hxtal)
    system_clock_120m_hxtal                  0x08001f95   Thumb Code   170  system_gd32f30x.o(i.system_clock_120m_hxtal)
    i.systick_config                         0x08002050   Section        0  systick.o(i.systick_config)
    i.timer_enable                           0x08002090   Section        0  gd32f30x_timer.o(i.timer_enable)
    i.timer_init                             0x0800209c   Section        0  gd32f30x_timer.o(i.timer_init)
    i.timer_interrupt_enable                 0x08002130   Section        0  gd32f30x_timer.o(i.timer_interrupt_enable)
    i.timer_interrupt_flag_clear             0x08002138   Section        0  gd32f30x_timer.o(i.timer_interrupt_flag_clear)
    i.write_flash                            0x08002140   Section        0  flash.o(i.write_flash)
    .constdata                               0x080021d4   Section       17  segger_rtt.o(.constdata)
    _aInitStr                                0x080021d4   Data          17  segger_rtt.o(.constdata)
    .constdata                               0x080021e5   Section       16  segger_rtt_printf.o(.constdata)
    _aV2C                                    0x080021e5   Data          16  segger_rtt_printf.o(.constdata)
    .constdata                               0x080021f8   Section      256  sha256.o(.constdata)
    K                                        0x080021f8   Data         256  sha256.o(.constdata)
    .conststring                             0x080022f8   Section      103  decrypt.o(.conststring)
    .data                                    0x20000000   Section        4  systick.o(.data)
    delay                                    0x20000000   Data           4  systick.o(.data)
    .data                                    0x20000004   Section        4  system_gd32f30x.o(.data)
    .data                                    0x20000008   Section        4  delay.o(.data)
    .data                                    0x2000000c   Section        4  platform_util.o(.data)
    memset_func                              0x2000000c   Data           4  platform_util.o(.data)
    .bss                                     0x20000010   Section       52  bootloader.o(.bss)
    .bss                                     0x20000044   Section     1208  segger_rtt.o(.bss)
    _acUpBuffer                              0x200000ec   Data        1024  segger_rtt.o(.bss)
    _acDownBuffer                            0x200004ec   Data          16  segger_rtt.o(.bss)
    STACK                                    0x20000500   Section     2048  startup_gd32f30x_hd.o(STACK)

    Global Symbols

    Symbol Name                              Value     Ov Type        Size  Object(Section)

    BuildAttributes$$THM_ISAv4$E$P$D$K$B$S$7EM$VFPi3$EXTD16$VFPS$VFMA$PE$A:L22UL41UL21$X:L11$S22US41US21$IEEE1$IW$USESV6$~STKCKD$USESV7$~SHL$OSPACE$ROPI$EBA8$MICROLIB$REQ8$PRES8$EABIv2 0x00000000   Number         0  anon$$obj.o ABSOLUTE
    __ARM_use_no_argv                        0x00000000   Number         0  main.o ABSOLUTE
    __arm_fini_                               - Undefined Weak Reference
    __cpp_initialize__aeabi_                  - Undefined Weak Reference
    __cxa_finalize                            - Undefined Weak Reference
    __decompress                              - Undefined Weak Reference
    _clock_init                               - Undefined Weak Reference
    _microlib_exit                            - Undefined Weak Reference
    __Vectors_Size                           0x00000130   Number         0  startup_gd32f30x_hd.o ABSOLUTE
    __Vectors                                0x08000000   Data           4  startup_gd32f30x_hd.o(RESET)
    __Vectors_End                            0x08000130   Data           0  startup_gd32f30x_hd.o(RESET)
    __main                                   0x08000131   Thumb Code     0  entry.o(.ARM.Collect$$$$00000000)
    _main_stk                                0x08000131   Thumb Code     0  entry2.o(.ARM.Collect$$$$00000001)
    _main_scatterload                        0x08000135   Thumb Code     0  entry5.o(.ARM.Collect$$$$00000004)
    __main_after_scatterload                 0x08000139   Thumb Code     0  entry5.o(.ARM.Collect$$$$00000004)
    _main_clock                              0x08000139   Thumb Code     0  entry7b.o(.ARM.Collect$$$$00000008)
    _main_cpp_init                           0x08000139   Thumb Code     0  entry8b.o(.ARM.Collect$$$$0000000A)
    _main_init                               0x08000139   Thumb Code     0  entry9a.o(.ARM.Collect$$$$0000000B)
    __rt_lib_shutdown_fini                   0x08000141   Thumb Code     0  entry12b.o(.ARM.Collect$$$$0000000E)
    __rt_final_cpp                           0x08000145   Thumb Code     0  entry10a.o(.ARM.Collect$$$$0000000F)
    __rt_final_exit                          0x08000145   Thumb Code     0  entry11a.o(.ARM.Collect$$$$00000011)
    Reset_Handler                            0x08000149   Thumb Code     8  startup_gd32f30x_hd.o(.text)
    ADC0_1_IRQHandler                        0x08000163   Thumb Code     0  startup_gd32f30x_hd.o(.text)
    ADC2_IRQHandler                          0x08000163   Thumb Code     0  startup_gd32f30x_hd.o(.text)
    CAN0_EWMC_IRQHandler                     0x08000163   Thumb Code     0  startup_gd32f30x_hd.o(.text)
    CAN0_RX1_IRQHandler                      0x08000163   Thumb Code     0  startup_gd32f30x_hd.o(.text)
    DMA0_Channel0_IRQHandler                 0x08000163   Thumb Code     0  startup_gd32f30x_hd.o(.text)
    DMA0_Channel1_IRQHandler                 0x08000163   Thumb Code     0  startup_gd32f30x_hd.o(.text)
    DMA0_Channel2_IRQHandler                 0x08000163   Thumb Code     0  startup_gd32f30x_hd.o(.text)
    DMA0_Channel3_IRQHandler                 0x08000163   Thumb Code     0  startup_gd32f30x_hd.o(.text)
    DMA0_Channel4_IRQHandler                 0x08000163   Thumb Code     0  startup_gd32f30x_hd.o(.text)
    DMA0_Channel5_IRQHandler                 0x08000163   Thumb Code     0  startup_gd32f30x_hd.o(.text)
    DMA0_Channel6_IRQHandler                 0x08000163   Thumb Code     0  startup_gd32f30x_hd.o(.text)
    DMA1_Channel0_IRQHandler                 0x08000163   Thumb Code     0  startup_gd32f30x_hd.o(.text)
    DMA1_Channel1_IRQHandler                 0x08000163   Thumb Code     0  startup_gd32f30x_hd.o(.text)
    DMA1_Channel2_IRQHandler                 0x08000163   Thumb Code     0  startup_gd32f30x_hd.o(.text)
    DMA1_Channel3_4_IRQHandler               0x08000163   Thumb Code     0  startup_gd32f30x_hd.o(.text)
    EXMC_IRQHandler                          0x08000163   Thumb Code     0  startup_gd32f30x_hd.o(.text)
    EXTI0_IRQHandler                         0x08000163   Thumb Code     0  startup_gd32f30x_hd.o(.text)
    EXTI10_15_IRQHandler                     0x08000163   Thumb Code     0  startup_gd32f30x_hd.o(.text)
    EXTI1_IRQHandler                         0x08000163   Thumb Code     0  startup_gd32f30x_hd.o(.text)
    EXTI2_IRQHandler                         0x08000163   Thumb Code     0  startup_gd32f30x_hd.o(.text)
    EXTI3_IRQHandler                         0x08000163   Thumb Code     0  startup_gd32f30x_hd.o(.text)
    EXTI4_IRQHandler                         0x08000163   Thumb Code     0  startup_gd32f30x_hd.o(.text)
    EXTI5_9_IRQHandler                       0x08000163   Thumb Code     0  startup_gd32f30x_hd.o(.text)
    FMC_IRQHandler                           0x08000163   Thumb Code     0  startup_gd32f30x_hd.o(.text)
    I2C0_ER_IRQHandler                       0x08000163   Thumb Code     0  startup_gd32f30x_hd.o(.text)
    I2C0_EV_IRQHandler                       0x08000163   Thumb Code     0  startup_gd32f30x_hd.o(.text)
    I2C1_ER_IRQHandler                       0x08000163   Thumb Code     0  startup_gd32f30x_hd.o(.text)
    I2C1_EV_IRQHandler                       0x08000163   Thumb Code     0  startup_gd32f30x_hd.o(.text)
    LVD_IRQHandler                           0x08000163   Thumb Code     0  startup_gd32f30x_hd.o(.text)
    RCU_CTC_IRQHandler                       0x08000163   Thumb Code     0  startup_gd32f30x_hd.o(.text)
    RTC_Alarm_IRQHandler                     0x08000163   Thumb Code     0  startup_gd32f30x_hd.o(.text)
    RTC_IRQHandler                           0x08000163   Thumb Code     0  startup_gd32f30x_hd.o(.text)
    SDIO_IRQHandler                          0x08000163   Thumb Code     0  startup_gd32f30x_hd.o(.text)
    SPI0_IRQHandler                          0x08000163   Thumb Code     0  startup_gd32f30x_hd.o(.text)
    SPI1_IRQHandler                          0x08000163   Thumb Code     0  startup_gd32f30x_hd.o(.text)
    SPI2_IRQHandler                          0x08000163   Thumb Code     0  startup_gd32f30x_hd.o(.text)
    TAMPER_IRQHandler                        0x08000163   Thumb Code     0  startup_gd32f30x_hd.o(.text)
    TIMER0_BRK_IRQHandler                    0x08000163   Thumb Code     0  startup_gd32f30x_hd.o(.text)
    TIMER0_Channel_IRQHandler                0x08000163   Thumb Code     0  startup_gd32f30x_hd.o(.text)
    TIMER0_TRG_CMT_IRQHandler                0x08000163   Thumb Code     0  startup_gd32f30x_hd.o(.text)
    TIMER0_UP_IRQHandler                     0x08000163   Thumb Code     0  startup_gd32f30x_hd.o(.text)
    TIMER1_IRQHandler                        0x08000163   Thumb Code     0  startup_gd32f30x_hd.o(.text)
    TIMER2_IRQHandler                        0x08000163   Thumb Code     0  startup_gd32f30x_hd.o(.text)
    TIMER3_IRQHandler                        0x08000163   Thumb Code     0  startup_gd32f30x_hd.o(.text)
    TIMER4_IRQHandler                        0x08000163   Thumb Code     0  startup_gd32f30x_hd.o(.text)
    TIMER5_IRQHandler                        0x08000163   Thumb Code     0  startup_gd32f30x_hd.o(.text)
    TIMER7_BRK_IRQHandler                    0x08000163   Thumb Code     0  startup_gd32f30x_hd.o(.text)
    TIMER7_Channel_IRQHandler                0x08000163   Thumb Code     0  startup_gd32f30x_hd.o(.text)
    TIMER7_TRG_CMT_IRQHandler                0x08000163   Thumb Code     0  startup_gd32f30x_hd.o(.text)
    TIMER7_UP_IRQHandler                     0x08000163   Thumb Code     0  startup_gd32f30x_hd.o(.text)
    UART3_IRQHandler                         0x08000163   Thumb Code     0  startup_gd32f30x_hd.o(.text)
    UART4_IRQHandler                         0x08000163   Thumb Code     0  startup_gd32f30x_hd.o(.text)
    USART0_IRQHandler                        0x08000163   Thumb Code     0  startup_gd32f30x_hd.o(.text)
    USART1_IRQHandler                        0x08000163   Thumb Code     0  startup_gd32f30x_hd.o(.text)
    USART2_IRQHandler                        0x08000163   Thumb Code     0  startup_gd32f30x_hd.o(.text)
    USBD_HP_CAN0_TX_IRQHandler               0x08000163   Thumb Code     0  startup_gd32f30x_hd.o(.text)
    USBD_LP_CAN0_RX0_IRQHandler              0x08000163   Thumb Code     0  startup_gd32f30x_hd.o(.text)
    USBD_WKUP_IRQHandler                     0x08000163   Thumb Code     0  startup_gd32f30x_hd.o(.text)
    WWDGT_IRQHandler                         0x08000163   Thumb Code     0  startup_gd32f30x_hd.o(.text)
    __aeabi_llsl                             0x0800016d   Thumb Code    30  llshl.o(.text)
    _ll_shift_l                              0x0800016d   Thumb Code     0  llshl.o(.text)
    __aeabi_memcpy                           0x0800018b   Thumb Code    36  memcpya.o(.text)
    __aeabi_memcpy4                          0x0800018b   Thumb Code     0  memcpya.o(.text)
    __aeabi_memcpy8                          0x0800018b   Thumb Code     0  memcpya.o(.text)
    __aeabi_memset                           0x080001af   Thumb Code    14  memseta.o(.text)
    __aeabi_memset4                          0x080001af   Thumb Code     0  memseta.o(.text)
    __aeabi_memset8                          0x080001af   Thumb Code     0  memseta.o(.text)
    __aeabi_memclr                           0x080001bd   Thumb Code     4  memseta.o(.text)
    __aeabi_memclr4                          0x080001bd   Thumb Code     0  memseta.o(.text)
    __aeabi_memclr8                          0x080001bd   Thumb Code     0  memseta.o(.text)
    memset                                   0x080001c1   Thumb Code    18  memseta.o(.text)
    memcmp                                   0x080001d3   Thumb Code    26  memcmp.o(.text)
    strrchr                                  0x080001ed   Thumb Code    22  strrchr.o(.text)
    __aeabi_dmul                             0x08000203   Thumb Code   228  dmul.o(.text)
    __aeabi_i2d                              0x080002e7   Thumb Code    34  dflti.o(.text)
    __aeabi_d2iz                             0x08000309   Thumb Code    62  dfixi.o(.text)
    __aeabi_llsr                             0x08000347   Thumb Code    32  llushr.o(.text)
    _ll_ushift_r                             0x08000347   Thumb Code     0  llushr.o(.text)
    __I$use$fp                               0x08000367   Thumb Code     0  iusefp.o(.text)
    _double_round                            0x08000367   Thumb Code    30  depilogue.o(.text)
    _double_epilogue                         0x08000385   Thumb Code   156  depilogue.o(.text)
    __scatterload                            0x08000421   Thumb Code    28  init.o(.text)
    __scatterload_rt2                        0x08000421   Thumb Code     0  init.o(.text)
    BusFault_Handler                         0x08000445   Thumb Code     2  gd32f30x_it.o(i.BusFault_Handler)
    DebugMon_Handler                         0x08000447   Thumb Code     2  gd32f30x_it.o(i.DebugMon_Handler)
    Flash_ReadProtection_Enable              0x08000449   Thumb Code    42  flash.o(i.Flash_ReadProtection_Enable)
    HardFault_Handler                        0x08000473   Thumb Code     2  gd32f30x_it.o(i.HardFault_Handler)
    MemManage_Handler                        0x08000475   Thumb Code     2  gd32f30x_it.o(i.MemManage_Handler)
    NMI_Handler                              0x08000477   Thumb Code     2  gd32f30x_it.o(i.NMI_Handler)
    PendSV_Handler                           0x080004b9   Thumb Code     2  gd32f30x_it.o(i.PendSV_Handler)
    SEGGER_RTT_Write                         0x080004bd   Thumb Code    50  segger_rtt.o(i.SEGGER_RTT_Write)
    SEGGER_RTT_WriteNoLock                   0x080004f5   Thumb Code    86  segger_rtt.o(i.SEGGER_RTT_WriteNoLock)
    SEGGER_RTT_printf                        0x08000551   Thumb Code    22  segger_rtt_printf.o(i.SEGGER_RTT_printf)
    SEGGER_RTT_vprintf                       0x08000567   Thumb Code   428  segger_rtt_printf.o(i.SEGGER_RTT_vprintf)
    SVC_Handler                              0x08000713   Thumb Code     2  gd32f30x_it.o(i.SVC_Handler)
    SysTick_Handler                          0x08000715   Thumb Code     4  gd32f30x_it.o(i.SysTick_Handler)
    SystemInit                               0x08000719   Thumb Code    80  system_gd32f30x.o(i.SystemInit)
    TIMER6_IRQHandler                        0x08000775   Thumb Code    20  delay.o(i.TIMER6_IRQHandler)
    UsageFault_Handler                       0x08000791   Thumb Code     2  gd32f30x_it.o(i.UsageFault_Handler)
    __scatterload_copy                       0x08000b03   Thumb Code    14  handlers.o(i.__scatterload_copy)
    __scatterload_null                       0x08000b11   Thumb Code     2  handlers.o(i.__scatterload_null)
    __scatterload_zeroinit                   0x08000b13   Thumb Code    14  handlers.o(i.__scatterload_zeroinit)
    app_bootloader_init                      0x08000b21   Thumb Code    88  bootloader.o(i.app_bootloader_init)
    delay_1ms                                0x08000bc1   Thumb Code    12  systick.o(i.delay_1ms)
    delay_decrement                          0x08000bd1   Thumb Code    16  systick.o(i.delay_decrement)
    delay_init                               0x08000be5   Thumb Code     4  delay.o(i.delay_init)
    delay_timer_init                         0x08000be9   Thumb Code    70  delay.o(i.delay_timer_init)
    do_hash_file                             0x08000c35   Thumb Code   224  decrypt.o(i.do_hash_file)
    do_ota_file                              0x08000d75   Thumb Code   254  bootloader.o(i.do_ota_file)
    erase_flash                              0x08000f95   Thumb Code    86  flash.o(i.erase_flash)
    fmc_bank0_ready_wait                     0x08001025   Thumb Code    22  gd32f30x_fmc.o(i.fmc_bank0_ready_wait)
    fmc_bank0_state_get                      0x0800103d   Thumb Code    34  gd32f30x_fmc.o(i.fmc_bank0_state_get)
    fmc_bank1_ready_wait                     0x08001065   Thumb Code    22  gd32f30x_fmc.o(i.fmc_bank1_ready_wait)
    fmc_bank1_state_get                      0x0800107d   Thumb Code    34  gd32f30x_fmc.o(i.fmc_bank1_state_get)
    fmc_flag_clear                           0x080010a5   Thumb Code    22  gd32f30x_fmc.o(i.fmc_flag_clear)
    fmc_lock                                 0x080010c1   Thumb Code    30  gd32f30x_fmc.o(i.fmc_lock)
    fmc_page_erase                           0x080010e9   Thumb Code   120  gd32f30x_fmc.o(i.fmc_page_erase)
    fmc_unlock                               0x08001171   Thumb Code    38  gd32f30x_fmc.o(i.fmc_unlock)
    fmc_word_program                         0x080011a9   Thumb Code    98  gd32f30x_fmc.o(i.fmc_word_program)
    gpio_pin_remap_config                    0x0800121d   Thumb Code    82  gd32f30x_gpio.o(i.gpio_pin_remap_config)
    main                                     0x08001275   Thumb Code    50  main.o(i.main)
    mbedtls_internal_sha256_process          0x080012ad   Thumb Code  2070  sha256.o(i.mbedtls_internal_sha256_process)
    mbedtls_platform_zeroize                 0x08001ac5   Thumb Code    10  platform_util.o(i.mbedtls_platform_zeroize)
    mbedtls_sha256_finish                    0x08001ad5   Thumb Code     4  sha256.o(i.mbedtls_sha256_finish)
    mbedtls_sha256_finish_ret                0x08001ad9   Thumb Code   326  sha256.o(i.mbedtls_sha256_finish_ret)
    mbedtls_sha256_free                      0x08001c1f   Thumb Code    12  sha256.o(i.mbedtls_sha256_free)
    mbedtls_sha256_init                      0x08001c2b   Thumb Code     6  sha256.o(i.mbedtls_sha256_init)
    mbedtls_sha256_starts                    0x08001c31   Thumb Code     4  sha256.o(i.mbedtls_sha256_starts)
    mbedtls_sha256_starts_ret                0x08001c35   Thumb Code    78  sha256.o(i.mbedtls_sha256_starts_ret)
    mbedtls_sha256_update                    0x08001cc5   Thumb Code     4  sha256.o(i.mbedtls_sha256_update)
    mbedtls_sha256_update_ret                0x08001cc9   Thumb Code   118  sha256.o(i.mbedtls_sha256_update_ret)
    normal_boot_to_app                       0x08001d41   Thumb Code    44  bootloader.o(i.normal_boot_to_app)
    nvic_irq_disable                         0x08001d75   Thumb Code    22  gd32f30x_misc.o(i.nvic_irq_disable)
    nvic_irq_enable                          0x08001d8d   Thumb Code   144  gd32f30x_misc.o(i.nvic_irq_enable)
    nvic_priority_group_set                  0x08001e21   Thumb Code    10  gd32f30x_misc.o(i.nvic_priority_group_set)
    nvic_vector_table_set                    0x08001e35   Thumb Code    12  gd32f30x_misc.o(i.nvic_vector_table_set)
    ob_erase                                 0x08001e49   Thumb Code    96  gd32f30x_fmc.o(i.ob_erase)
    ob_lock                                  0x08001eb5   Thumb Code    12  gd32f30x_fmc.o(i.ob_lock)
    ob_security_protection_config            0x08001ec5   Thumb Code    94  gd32f30x_fmc.o(i.ob_security_protection_config)
    ob_spc_get                               0x08001f31   Thumb Code    14  gd32f30x_fmc.o(i.ob_spc_get)
    ob_unlock                                0x08001f45   Thumb Code    18  gd32f30x_fmc.o(i.ob_unlock)
    rcu_ahb_clock_config                     0x08001f65   Thumb Code    14  gd32f30x_rcu.o(i.rcu_ahb_clock_config)
    rcu_periph_clock_enable                  0x08001f79   Thumb Code    22  gd32f30x_rcu.o(i.rcu_periph_clock_enable)
    systick_config                           0x08002051   Thumb Code    60  systick.o(i.systick_config)
    timer_enable                             0x08002091   Thumb Code    10  gd32f30x_timer.o(i.timer_enable)
    timer_init                               0x0800209d   Thumb Code   120  gd32f30x_timer.o(i.timer_init)
    timer_interrupt_enable                   0x08002131   Thumb Code     8  gd32f30x_timer.o(i.timer_interrupt_enable)
    timer_interrupt_flag_clear               0x08002139   Thumb Code     6  gd32f30x_timer.o(i.timer_interrupt_flag_clear)
    write_flash                              0x08002141   Thumb Code    92  flash.o(i.write_flash)
    Region$$Table$$Base                      0x08002360   Number         0  anon$$obj.o(Region$$Table)
    Region$$Table$$Limit                     0x08002380   Number         0  anon$$obj.o(Region$$Table)
    SystemCoreClock                          0x20000004   Data           4  system_gd32f30x.o(.data)
    g_timeticks                              0x20000008   Data           4  delay.o(.data)
    ota_package_flag                         0x20000010   Data          52  bootloader.o(.bss)
    _SEGGER_RTT                              0x20000044   Data         168  segger_rtt.o(.bss)
    __initial_sp                             0x20000d00   Data           0  startup_gd32f30x_hd.o(STACK)



==============================================================================

Memory Map of the image

  Image Entry point : 0x08000131

  Load Region LR_IROM1 (Base: 0x08000000, Size: 0x00002390, Max: 0x00005000, ABSOLUTE)

    Execution Region ER_IROM1 (Exec base: 0x08000000, Load base: 0x08000000, Size: 0x00002380, Max: 0x00005000, ABSOLUTE)

    Exec Addr    Load Addr    Size         Type   Attr      Idx    E Section Name        Object

    0x08000000   0x08000000   0x00000130   Data   RO         4370    RESET               startup_gd32f30x_hd.o
    0x08000130   0x08000130   0x00000000   Code   RO         6108  * .ARM.Collect$$$$00000000  mc_w.l(entry.o)
    0x08000130   0x08000130   0x00000004   Code   RO         6165    .ARM.Collect$$$$00000001  mc_w.l(entry2.o)
    0x08000134   0x08000134   0x00000004   Code   RO         6168    .ARM.Collect$$$$00000004  mc_w.l(entry5.o)
    0x08000138   0x08000138   0x00000000   Code   RO         6170    .ARM.Collect$$$$00000008  mc_w.l(entry7b.o)
    0x08000138   0x08000138   0x00000000   Code   RO         6172    .ARM.Collect$$$$0000000A  mc_w.l(entry8b.o)
    0x08000138   0x08000138   0x00000008   Code   RO         6173    .ARM.Collect$$$$0000000B  mc_w.l(entry9a.o)
    0x08000140   0x08000140   0x00000004   Code   RO         6180    .ARM.Collect$$$$0000000E  mc_w.l(entry12b.o)
    0x08000144   0x08000144   0x00000000   Code   RO         6175    .ARM.Collect$$$$0000000F  mc_w.l(entry10a.o)
    0x08000144   0x08000144   0x00000000   Code   RO         6177    .ARM.Collect$$$$00000011  mc_w.l(entry11a.o)
    0x08000144   0x08000144   0x00000004   Code   RO         6166    .ARM.Collect$$$$00002712  mc_w.l(entry2.o)
    0x08000148   0x08000148   0x00000024   Code   RO         4371    .text               startup_gd32f30x_hd.o
    0x0800016c   0x0800016c   0x0000001e   Code   RO         6111    .text               mc_w.l(llshl.o)
    0x0800018a   0x0800018a   0x00000024   Code   RO         6113    .text               mc_w.l(memcpya.o)
    0x080001ae   0x080001ae   0x00000024   Code   RO         6117    .text               mc_w.l(memseta.o)
    0x080001d2   0x080001d2   0x0000001a   Code   RO         6123    .text               mc_w.l(memcmp.o)
    0x080001ec   0x080001ec   0x00000016   Code   RO         6125    .text               mc_w.l(strrchr.o)
    0x08000202   0x08000202   0x000000e4   Code   RO         6159    .text               mf_w.l(dmul.o)
    0x080002e6   0x080002e6   0x00000022   Code   RO         6161    .text               mf_w.l(dflti.o)
    0x08000308   0x08000308   0x0000003e   Code   RO         6163    .text               mf_w.l(dfixi.o)
    0x08000346   0x08000346   0x00000020   Code   RO         6181    .text               mc_w.l(llushr.o)
    0x08000366   0x08000366   0x00000000   Code   RO         6185    .text               mc_w.l(iusefp.o)
    0x08000366   0x08000366   0x000000ba   Code   RO         6186    .text               mf_w.l(depilogue.o)
    0x08000420   0x08000420   0x00000024   Code   RO         6188    .text               mc_w.l(init.o)
    0x08000444   0x08000444   0x00000002   Code   RO          133    i.BusFault_Handler  gd32f30x_it.o
    0x08000446   0x08000446   0x00000002   Code   RO          134    i.DebugMon_Handler  gd32f30x_it.o
    0x08000448   0x08000448   0x0000002a   Code   RO         4541    i.Flash_ReadProtection_Enable  flash.o
    0x08000472   0x08000472   0x00000002   Code   RO          135    i.HardFault_Handler  gd32f30x_it.o
    0x08000474   0x08000474   0x00000002   Code   RO          136    i.MemManage_Handler  gd32f30x_it.o
    0x08000476   0x08000476   0x00000002   Code   RO          137    i.NMI_Handler       gd32f30x_it.o
    0x08000478   0x08000478   0x00000020   Code   RO          223    i.NVIC_SetPriority  systick.o
    0x08000498   0x08000498   0x00000020   Code   RO         4543    i.NVIC_SystemReset  flash.o
    0x080004b8   0x080004b8   0x00000002   Code   RO          138    i.PendSV_Handler    gd32f30x_it.o
    0x080004ba   0x080004ba   0x00000002   PAD
    0x080004bc   0x080004bc   0x00000038   Code   RO         4733    i.SEGGER_RTT_Write  segger_rtt.o
    0x080004f4   0x080004f4   0x0000005c   Code   RO         4736    i.SEGGER_RTT_WriteNoLock  segger_rtt.o
    0x08000550   0x08000550   0x00000016   Code   RO         4941    i.SEGGER_RTT_printf  segger_rtt_printf.o
    0x08000566   0x08000566   0x000001ac   Code   RO         4942    i.SEGGER_RTT_vprintf  segger_rtt_printf.o
    0x08000712   0x08000712   0x00000002   Code   RO          139    i.SVC_Handler       gd32f30x_it.o
    0x08000714   0x08000714   0x00000004   Code   RO          140    i.SysTick_Handler   gd32f30x_it.o
    0x08000718   0x08000718   0x0000005c   Code   RO          337    i.SystemInit        system_gd32f30x.o
    0x08000774   0x08000774   0x0000001c   Code   RO         4438    i.TIMER6_IRQHandler  delay.o
    0x08000790   0x08000790   0x00000002   Code   RO          141    i.UsageFault_Handler  gd32f30x_it.o
    0x08000792   0x08000792   0x00000002   PAD
    0x08000794   0x08000794   0x00000064   Code   RO         4740    i._DoInit           segger_rtt.o
    0x080007f8   0x080007f8   0x00000016   Code   RO         4741    i._GetAvailWriteSpace  segger_rtt.o
    0x0800080e   0x0800080e   0x0000008a   Code   RO         4943    i._PrintFloat       segger_rtt_printf.o
    0x08000898   0x08000898   0x000000c4   Code   RO         4944    i._PrintInt         segger_rtt_printf.o
    0x0800095c   0x0800095c   0x000000cc   Code   RO         4945    i._PrintUnsigned    segger_rtt_printf.o
    0x08000a28   0x08000a28   0x0000003e   Code   RO         4946    i._StoreChar        segger_rtt_printf.o
    0x08000a66   0x08000a66   0x0000005a   Code   RO         4743    i._WriteBlocking    segger_rtt.o
    0x08000ac0   0x08000ac0   0x00000042   Code   RO         4744    i._WriteNoCheck     segger_rtt.o
    0x08000b02   0x08000b02   0x0000000e   Code   RO         6192    i.__scatterload_copy  mc_w.l(handlers.o)
    0x08000b10   0x08000b10   0x00000002   Code   RO         6193    i.__scatterload_null  mc_w.l(handlers.o)
    0x08000b12   0x08000b12   0x0000000e   Code   RO         6194    i.__scatterload_zeroinit  mc_w.l(handlers.o)
    0x08000b20   0x08000b20   0x000000a0   Code   RO          266    i.app_bootloader_init  bootloader.o
    0x08000bc0   0x08000bc0   0x00000010   Code   RO          224    i.delay_1ms         systick.o
    0x08000bd0   0x08000bd0   0x00000014   Code   RO          225    i.delay_decrement   systick.o
    0x08000be4   0x08000be4   0x00000004   Code   RO         4439    i.delay_init        delay.o
    0x08000be8   0x08000be8   0x0000004c   Code   RO         4441    i.delay_timer_init  delay.o
    0x08000c34   0x08000c34   0x00000140   Code   RO         6054    i.do_hash_file      decrypt.o
    0x08000d74   0x08000d74   0x00000220   Code   RO          267    i.do_ota_file       bootloader.o
    0x08000f94   0x08000f94   0x00000090   Code   RO         4544    i.erase_flash       flash.o
    0x08001024   0x08001024   0x00000016   Code   RO         1868    i.fmc_bank0_ready_wait  gd32f30x_fmc.o
    0x0800103a   0x0800103a   0x00000002   PAD
    0x0800103c   0x0800103c   0x00000028   Code   RO         1869    i.fmc_bank0_state_get  gd32f30x_fmc.o
    0x08001064   0x08001064   0x00000016   Code   RO         1873    i.fmc_bank1_ready_wait  gd32f30x_fmc.o
    0x0800107a   0x0800107a   0x00000002   PAD
    0x0800107c   0x0800107c   0x00000028   Code   RO         1874    i.fmc_bank1_state_get  gd32f30x_fmc.o
    0x080010a4   0x080010a4   0x0000001c   Code   RO         1876    i.fmc_flag_clear    gd32f30x_fmc.o
    0x080010c0   0x080010c0   0x00000028   Code   RO         1883    i.fmc_lock          gd32f30x_fmc.o
    0x080010e8   0x080010e8   0x00000088   Code   RO         1885    i.fmc_page_erase    gd32f30x_fmc.o
    0x08001170   0x08001170   0x00000038   Code   RO         1886    i.fmc_unlock        gd32f30x_fmc.o
    0x080011a8   0x080011a8   0x00000074   Code   RO         1887    i.fmc_word_program  gd32f30x_fmc.o
    0x0800121c   0x0800121c   0x00000058   Code   RO         2158    i.gpio_pin_remap_config  gd32f30x_gpio.o
    0x08001274   0x08001274   0x00000038   Code   RO            3    i.main              main.o
    0x080012ac   0x080012ac   0x00000816   Code   RO         5487    i.mbedtls_internal_sha256_process  sha256.o
    0x08001ac2   0x08001ac2   0x00000002   PAD
    0x08001ac4   0x08001ac4   0x00000010   Code   RO         5212    i.mbedtls_platform_zeroize  platform_util.o
    0x08001ad4   0x08001ad4   0x00000004   Code   RO         5490    i.mbedtls_sha256_finish  sha256.o
    0x08001ad8   0x08001ad8   0x00000146   Code   RO         5491    i.mbedtls_sha256_finish_ret  sha256.o
    0x08001c1e   0x08001c1e   0x0000000c   Code   RO         5492    i.mbedtls_sha256_free  sha256.o
    0x08001c2a   0x08001c2a   0x00000006   Code   RO         5493    i.mbedtls_sha256_init  sha256.o
    0x08001c30   0x08001c30   0x00000004   Code   RO         5496    i.mbedtls_sha256_starts  sha256.o
    0x08001c34   0x08001c34   0x00000090   Code   RO         5497    i.mbedtls_sha256_starts_ret  sha256.o
    0x08001cc4   0x08001cc4   0x00000004   Code   RO         5498    i.mbedtls_sha256_update  sha256.o
    0x08001cc8   0x08001cc8   0x00000076   Code   RO         5499    i.mbedtls_sha256_update_ret  sha256.o
    0x08001d3e   0x08001d3e   0x00000002   PAD
    0x08001d40   0x08001d40   0x00000034   Code   RO          268    i.normal_boot_to_app  bootloader.o
    0x08001d74   0x08001d74   0x00000016   Code   RO         2475    i.nvic_irq_disable  gd32f30x_misc.o
    0x08001d8a   0x08001d8a   0x00000002   PAD
    0x08001d8c   0x08001d8c   0x00000094   Code   RO         2476    i.nvic_irq_enable   gd32f30x_misc.o
    0x08001e20   0x08001e20   0x00000014   Code   RO         2477    i.nvic_priority_group_set  gd32f30x_misc.o
    0x08001e34   0x08001e34   0x00000014   Code   RO         2478    i.nvic_vector_table_set  gd32f30x_misc.o
    0x08001e48   0x08001e48   0x0000006c   Code   RO         1892    i.ob_erase          gd32f30x_fmc.o
    0x08001eb4   0x08001eb4   0x00000010   Code   RO         1893    i.ob_lock           gd32f30x_fmc.o
    0x08001ec4   0x08001ec4   0x0000006c   Code   RO         1894    i.ob_security_protection_config  gd32f30x_fmc.o
    0x08001f30   0x08001f30   0x00000014   Code   RO         1895    i.ob_spc_get        gd32f30x_fmc.o
    0x08001f44   0x08001f44   0x00000020   Code   RO         1896    i.ob_unlock         gd32f30x_fmc.o
    0x08001f64   0x08001f64   0x00000014   Code   RO         2667    i.rcu_ahb_clock_config  gd32f30x_rcu.o
    0x08001f78   0x08001f78   0x0000001c   Code   RO         2693    i.rcu_periph_clock_enable  gd32f30x_rcu.o
    0x08001f94   0x08001f94   0x000000bc   Code   RO          338    i.system_clock_120m_hxtal  system_gd32f30x.o
    0x08002050   0x08002050   0x00000040   Code   RO          226    i.systick_config    systick.o
    0x08002090   0x08002090   0x0000000a   Code   RO         3591    i.timer_enable      gd32f30x_timer.o
    0x0800209a   0x0800209a   0x00000002   PAD
    0x0800209c   0x0800209c   0x00000094   Code   RO         3601    i.timer_init        gd32f30x_timer.o
    0x08002130   0x08002130   0x00000008   Code   RO         3608    i.timer_interrupt_enable  gd32f30x_timer.o
    0x08002138   0x08002138   0x00000006   Code   RO         3609    i.timer_interrupt_flag_clear  gd32f30x_timer.o
    0x0800213e   0x0800213e   0x00000002   PAD
    0x08002140   0x08002140   0x00000094   Code   RO         4547    i.write_flash       flash.o
    0x080021d4   0x080021d4   0x00000011   Data   RO         4746    .constdata          segger_rtt.o
    0x080021e5   0x080021e5   0x00000010   Data   RO         4947    .constdata          segger_rtt_printf.o
    0x080021f5   0x080021f5   0x00000003   PAD
    0x080021f8   0x080021f8   0x00000100   Data   RO         5500    .constdata          sha256.o
    0x080022f8   0x080022f8   0x00000067   Data   RO         6059    .conststring        decrypt.o
    0x0800235f   0x0800235f   0x00000001   PAD
    0x08002360   0x08002360   0x00000020   Data   RO         6190    Region$$Table       anon$$obj.o


    Execution Region RW_IRAM1 (Exec base: 0x20000000, Load base: 0x08002380, Size: 0x00000d00, Max: 0x0000c000, ABSOLUTE)

    Exec Addr    Load Addr    Size         Type   Attr      Idx    E Section Name        Object

    0x20000000   0x08002380   0x00000004   Data   RW          227    .data               systick.o
    0x20000004   0x08002384   0x00000004   Data   RW          339    .data               system_gd32f30x.o
    0x20000008   0x08002388   0x00000004   Data   RW         4445    .data               delay.o
    0x2000000c   0x0800238c   0x00000004   Data   RW         5213    .data               platform_util.o
    0x20000010        -       0x00000034   Zero   RW          269    .bss                bootloader.o
    0x20000044        -       0x000004b8   Zero   RW         4745    .bss                segger_rtt.o
    0x200004fc   0x08002390   0x00000004   PAD
    0x20000500        -       0x00000800   Zero   RW         4368    STACK               startup_gd32f30x_hd.o


==============================================================================

Image component sizes


      Code (inc. data)   RO Data    RW Data    ZI Data      Debug   Object Name

       756        370          0          0         52       5776   bootloader.o
       320         96        103          0          0       2219   decrypt.o
       108         14          0          4          0       2429   delay.o
       366        122          0          0          0      31213   flash.o
       784        130          0          0          0      16409   gd32f30x_fmc.o
        88          6          0          0          0        948   gd32f30x_gpio.o
        20          0          0          0          0       4146   gd32f30x_it.o
       210         22          0          0          0       3491   gd32f30x_misc.o
        48         12          0          0          0      18449   gd32f30x_rcu.o
       172         28          0          0          0      19044   gd32f30x_timer.o
        56          6          0          0          0      15803   main.o
        16          6          0          4          0       1915   platform_util.o
       426         32         17          0       1208      10078   segger_rtt.o
      1050          4         16          0          0       6893   segger_rtt_printf.o
      2688         70        256          0          0       9408   sha256.o
        36          8        304          0       2048        932   startup_gd32f30x_hd.o
       280         30          0          4          0       2503   system_gd32f30x.o
       132         12          0          4          0      29150   systick.o

    ----------------------------------------------------------------------
      7574        968        732         16       3312     180806   Object Totals
         0          0         32          0          0          0   (incl. Generated)
        18          0          4          0          4          0   (incl. Padding)

    ----------------------------------------------------------------------

      Code (inc. data)   RO Data    RW Data    ZI Data      Debug   Library Member Name

         0          0          0          0          0          0   entry.o
         0          0          0          0          0          0   entry10a.o
         0          0          0          0          0          0   entry11a.o
         4          0          0          0          0          0   entry12b.o
         8          4          0          0          0          0   entry2.o
         4          0          0          0          0          0   entry5.o
         0          0          0          0          0          0   entry7b.o
         0          0          0          0          0          0   entry8b.o
         8          4          0          0          0          0   entry9a.o
        30          0          0          0          0          0   handlers.o
        36          8          0          0          0         68   init.o
         0          0          0          0          0          0   iusefp.o
        30          0          0          0          0         68   llshl.o
        32          0          0          0          0         68   llushr.o
        26          0          0          0          0         80   memcmp.o
        36          0          0          0          0         68   memcpya.o
        36          0          0          0          0        108   memseta.o
        22          0          0          0          0         68   strrchr.o
       186          0          0          0          0        176   depilogue.o
        62          0          0          0          0         80   dfixi.o
        34          0          0          0          0         76   dflti.o
       228          0          0          0          0         96   dmul.o

    ----------------------------------------------------------------------
       782         16          0          0          0        956   Library Totals
         0          0          0          0          0          0   (incl. Padding)

    ----------------------------------------------------------------------

      Code (inc. data)   RO Data    RW Data    ZI Data      Debug   Library Name

       272         16          0          0          0        528   mc_w.l
       510          0          0          0          0        428   mf_w.l

    ----------------------------------------------------------------------
       782         16          0          0          0        956   Library Totals

    ----------------------------------------------------------------------

==============================================================================


      Code (inc. data)   RO Data    RW Data    ZI Data      Debug   

      8356        984        732         16       3312     174798   Grand Totals
      8356        984        732         16       3312     174798   ELF Image Totals
      8356        984        732         16          0          0   ROM Totals

==============================================================================

    Total RO  Size (Code + RO Data)                 9088 (   8.88kB)
    Total RW  Size (RW Data + ZI Data)              3328 (   3.25kB)
    Total ROM Size (Code + RO Data + RW Data)       9104 (   8.89kB)

==============================================================================

